:020000040800F2
:1000000000C00020059B00084D9B00084D9B000888
:100010004D9B00084D9B00084D9B00080000000010
:100020000000000000000000000000004D9B0008E0
:100030004D9B0008000000004D9B00084D9B0008F0
:10004000259800084D9B00084D9B00084D9B00081B
:100050004D9B00084D9B00083D1600084D9B000875
:100060004D9B00084D9B00084D9B00084D9B0008D0
:100070004D9B00084D9B00084D9B00084D9B0008C0
:100080004D9B00084D9B00084D9B00084D9B0008B0
:100090004D9B00084D9B00084D9B00087D160008F5
:1000A0004D9B00084D9B00084D9B00084D9B000890
:1000B00085970008599700084D9B00084D9B000844
:1000C0004D9B00084D9B00084D9B00084D9B000870
:1000D0004D9B0008E99800084D9B00084D9B0008C7
:1000E000AD1600084D9B00084D9B00084D9B000875
:1000F0004D9B00084D9B00084D9B00084D9B000840
:100100004D9B00084D9B00084D9B00084D9B00082F
:100110004D9B00084D9B00084D9B00084D9B00081F
:100120004D9B00084D9B00084D9B00084D9B00080F
:1001300000000000000000000000000000000000BF
:1001400000000000000000000000000000000000AF
:10015000000000000000000000000000000000009F
:10016000000000000000000000000000000000008F
:10017000000000000000000000000000000000007F
:10018000000000000000000000000000000000006F
:10019000000000000000000000000000000000005F
:1001A000000000000000000000000000000000004F
:1001B000000000000000000000000000000000003F
:1001C000000000000000000000000000000000002F
:1001D000000000000000000000000000000000001F
:0401E0005FF8E0F1F3
:1001E80010B5054C237833B9044B13B10448AFF369
:1001F80000800123237010BD68000020000000006B
:1002080088AD000808B5034B1BB103490348AFF399
:10021800008008BD000000006C00002088AD0008C8
:1002280081F0004102E000BF83F0004330B54FEA9F
:1002380041044FEA430594EA050F08BF90EA020F0C
:100248001FBF54EA000C55EA020C7FEA645C7FEA9F
:10025800655C00F0E2804FEA5454D4EB5555B8BFC2
:100268006D420CDD2C4480EA020281EA030382EA33
:10027800000083EA010180EA020281EA0303362DC5
:1002880088BF30BD11F0004F4FEA01314FF4801C98
:100298004CEA113102D0404261EB410113F0004FAA
:1002A8004FEA03334CEA133302D0524263EB430361
:1002B80094EA050F00F0A780A4F10104D5F1200EFF
:1002C8000DDB02FA0EFC22FA05F2801841F100015A
:1002D80003FA0EF2801843FA05F359410EE0A5F12E
:1002E80020050EF1200E012A03FA0EFC28BF4CF05F
:1002F800020C43FA05F3C01851EBE37101F0004515
:1003080007D54FF0000EDCF1000C7EEB00006EEB21
:100318000101B1F5801F1BD3B1F5001F0CD34908AB
:100328005FEA30004FEA3C0C04F101044FEA445202
:1003380012F5800F80F09A80BCF1004F08BF5FEA89
:10034800500C50F1000041EB045141EA050130BD69
:100358005FEA4C0C404141EB010111F4801FA4F10C
:100368000104E9D191F0000F04BF01460020B1FA61
:1003780081F308BF2033A3F10B03B3F120020CDA99
:100388000C3208DD02F1140CC2F10C0201FA0CF077
:1003980021FA02F10CE002F11402D8BFC2F1200CDC
:1003A80001FA02F120FA0CFCDCBF41EA0C01904092
:1003B800E41AA2BF01EB0451294330BD6FEA0404DB
:1003C8001F3C1CDA0C340EDC04F11404C4F12002C6
:1003D80020FA04F001FA02F340EA030021FA04F3D8
:1003E80045EA030130BDC4F10C04C4F1200220FA2F
:1003F80002F001FA04F340EA0300294630BD21FA6D
:1004080004F0294630BD94F0000F83F4801306BF32
:1004180081F480110134013D4EE77FEA645C18BF26
:100428007FEA655C29D094EA050F08BF90EA020FBD
:1004380005D054EA000C04BF1946104630BD91EAB5
:10044800030F1EBF0021002030BD5FEA545C05D1B8
:100458004000494128BF41F0004130BD14F58004F7
:100468003CBF01F5801130BD01F0004545F0FE416B
:1004780041F470014FF0000030BD7FEA645C1ABFA0
:10048800194610467FEA655C1CBF0B46024650EAD7
:10049800013406BF52EA033591EA030F41F4002103
:1004A80030BD00BF90F0000F04BF0021704730B589
:1004B8004FF4806404F132044FF000054FF000015E
:1004C80050E700BF90F0000F04BF0021704730B51F
:1004D8004FF4806404F1320410F0004548BF4042F4
:1004E8004FF000013EE700BF42004FEAE2014FEA49
:1004F80031014FEA02701FBF12F07F4393F07F4F24
:1005080081F06051704732F07F4208BF704793F026
:100518007F4F04BF41F40021704730B54FF4607439
:1005280001F0004521F000411CE700BF50EA01023C
:1005380008BF704730B54FF000050AE050EA0102E5
:1005480008BF704730B511F0004502D5404261EB55
:1005580041014FF4806404F132045FEA915C3FF496
:10056800D8AE4FF003025FEADC0C18BF03325FEA33
:10057800DC0C18BF033202EBDC02C2F1200300FAE4
:1005880003FC20FA02F001FA03FE40EA0E0021FA09
:1005980002F11444BDE600BF70B54FF0FF0C4CF4F7
:1005A800E06C1CEA11541DBF1CEA135594EA0C0FA9
:1005B80095EA0C0F00F0DEF82C4481EA030621EAE4
:1005C8004C5123EA4C5350EA013518BF52EA03351F
:1005D80041F4801143F4801338D0A0FB02CE4FF0D1
:1005E8000005E1FB02E506F00042E0FB03E54FF001
:1005F8000006E1FB03569CF0000F18BF4EF0010EF9
:10060800A4F1FF04B6F5007F64F5407404D25FEAF4
:100618004E0E6D4146EB060642EAC62141EA5551A7
:100628004FEAC52040EA5E504FEACE2EB4F1FD0CE9
:1006380088BFBCF5E06F1ED8BEF1004F08BF5FEA67
:10064800500E50F1000041EB045170BD06F0004619
:1006580046EA010140EA020081EA0301B4EB5C04C6
:10066800C2BFD4EB0C0541EA045170BD41F48011BE
:100678004FF0000E013C00F3AB8014F1360FDEBFE3
:10068800002001F0004170BDC4F10004203C35DABF
:100698000C341BDC04F11404C4F1200500FA05F342
:1006A80020FA04F001FA05F240EA020001F00042E3
:1006B80021F0004110EBD37021FA04F642EB060159
:1006C8005EEA430E08BF20EAD37070BDC4F10C0483
:1006D800C4F1200500FA04F320FA05F001FA04F247
:1006E80040EA020001F0004110EBD37041F1000133
:1006F8005EEA430E08BF20EAD37070BDC4F120053E
:1007080000FA05F24EEA020E20FA04F301FA05F2A5
:1007180043EA020321FA04F001F0004121FA04F24D
:1007280020EA020000EBD3705EEA430E08BF20EA1D
:10073800D37070BD94F0000F0FD101F00046400057
:1007480041EB010111F4801F08BF013CF7D041EAD9
:10075800060195F0000F18BF704703F000465200DD
:1007680043EB030313F4801F08BF013DF7D043EAAE
:100778000603704794EA0C0F0CEA135518BF95EA64
:100788000C0F0CD050EA410618BF52EA4306D1D1EB
:1007980081EA030101F000414FF0000070BD50EA0A
:1007A800410606BF1046194652EA430619D094EA94
:1007B8000C0F02D150EA013613D195EA0C0F05D17E
:1007C80052EA03361CBF104619460AD181EA0301D2
:1007D80001F0004141F0FE4141F470014FF000008A
:1007E80070BD41F0FE4141F4780170BD70B54FF025
:1007F800FF0C4CF4E06C1CEA11541DBF1CEA1355A5
:1008080094EA0C0F95EA0C0F00F0A7F8A4EB050486
:1008180081EA030E52EA03354FEA013100F088807D
:100828004FEA03334FF0805545EA131343EA126346
:100838004FEA022245EA111545EA10654FEA0026FB
:100848000EF000419D4208BF964244F1FD0404F5B4
:10085800407402D25B084FEA3202B61A65EB030510
:100868005B084FEA32024FF480104FF4002CB6EBCD
:10087800020E75EB030E22BFB61A754640EA0C004D
:100888005B084FEA3202B6EB020E75EB030E22BF8D
:10089800B61A754640EA5C005B084FEA3202B6EBCE
:1008A800020E75EB030E22BFB61A754640EA9C008D
:1008B8005B084FEA3202B6EB020E75EB030E22BF5D
:1008C800B61A754640EADC0055EA060E18D04FEA1B
:1008D800051545EA16754FEA06164FEAC30343EABB
:1008E80052734FEAC2025FEA1C1CC0D111F4801F88
:1008F8000BD141EA00014FF000004FF0004CB6E781
:1009080011F4801F04BF01430020B4F1FD0C88BF1F
:10091800BCF5E06F3FF6AFAEB5EB030C04BFB6EB2A
:10092800020C5FEA500C50F1000041EB045170BD1D
:100938000EF0004E4EEA113114EB5C04C2BFD4EB4A
:100948000C0541EA045170BD41F480114FF0000ECE
:10095800013C90E645EA060E8DE60CEA135594EA4A
:100968000C0F08BF95EA0C0F3FF43BAF94EA0C0F4D
:100978000AD150EA01347FF434AF95EA0C0F7FF4C2
:1009880025AF104619462CE795EA0C0F06D152EA16
:1009980003353FF4FDAE1046194622E750EA4106FA
:1009A80018BF52EA43067FF4C5AE50EA41047FF40B
:1009B8000DAF52EA43057FF4EBAE12E74A0011D2BD
:1009C80012F5001211D20DD56FF47873B3EB6252A1
:1009D8000ED44FEAC12343F0004343EA505323FAAD
:1009E80002F070474FF00000704750EA013002D122
:1009F8004FF0FF3070474FF00000704780F0004024
:100A080002E000BF81F0004142001FBF5FEA4103DE
:100A180092EA030F7FEA226C7FEA236C6AD04FEADE
:100A28001262D2EB1363C1BFD21841404840414023
:100A3800B8BF5B42192B88BF704710F0004F40F4D5
:100A4800000020F07F4018BF404211F0004F41F4F1
:100A5800000121F07F4118BF494292EA030F3FD0BD
:100A6800A2F1010241FA03FC10EB0C00C3F12003D0
:100A780001FA03F100F0004302D5494260EB40005F
:100A8800B0F5000F13D3B0F1807F06D340084FEACA
:100A9800310102F10102FE2A51D2B1F1004F40EBBF
:100AA800C25008BF20F0010040EA03007047490027
:100AB80040EB000010F4000FA2F10102EDD1B0FAF2
:100AC80080FCACF1080CB2EB0C0200FA0CF0AABFE7
:100AD80000EBC25052421843BCBFD0401843704785
:100AE80092F0000F81F4000106BF80F4000001328B
:100AF800013BB5E74FEA41037FEA226C18BF7FEA62
:100B0800236C21D092EA030F04D092F0000F08BFA3
:100B18000846704790EA010F1CBF0020704712F08A
:100B28007F4F04D1400028BF40F00040704712F1C9
:100B380000723CBF00F50000704700F0004343F02E
:100B4800FE4040F4000070477FEA226216BF084664
:100B58007FEA23630146420206BF5FEA412390EA27
:100B6800010F40F4800070474FF0000304E000BF1D
:100B780010F0004348BF40425FEA000C08BF7047CE
:100B880043F0964301464FF000001CE050EA010292
:100B980008BF70474FF000030AE000BF50EA0102A7
:100BA80008BF704711F0004302D5404261EB410194
:100BB8005FEA010C02BF84460146002043F0B643B9
:100BC80008BFA3F18053A3F50003BCFA8CF2083ADE
:100BD800A3EBC25310DB01FA02FC634400FA02FCE7
:100BE800C2F12002BCF1004F20FA02F243EB0200EE
:100BF80008BF20F00100704702F1200201FA02FC50
:100C0800C2F1200250EA4C0021FA02F243EB020042
:100C180008BF20EADC7070474FF0FF0C1CEAD05286
:100C28001EBF1CEAD15392EA0C0F93EA0C0F6FD047
:100C38001A4480EA010C400218BF5FEA41211ED025
:100C48004FF0006343EA501043EA5111A0FB013111
:100C58000CF00040B1F5000F3EBF490041EAD371E6
:100C68005B0040EA010062F17F02FD2A1DD8B3F162
:100C7800004F40EBC25008BF20F00100704790F0D1
:100C8800000F0CF0004C08BF49024CEA502040EA23
:100C980051207F3AC2BFD2F1FF0340EAC2507047E9
:100CA80040F400004FF00003013A5DDC12F1190F27
:100CB800DCBF00F000407047C2F10002410021FA99
:100CC80002F1C2F1200200FA02FC5FEA310040F1B1
:100CD800000053EA4C0308BF20EADC70704792F02A
:100CE800000F00F0004C02BF400010F4000F013A62
:100CF800F9D040EA0C0093F0000F01F0004C02BF5D
:100D0800490011F4000F013BF9D041EA0C018FE7CB
:100D18000CEAD15392EA0C0F18BF93EA0C0F0AD0D1
:100D280030F0004C18BF31F0004CD8D180EA0100F7
:100D380000F00040704790F0000F17BF90F0004F90
:100D4800084691F0000F91F0004F14D092EA0C0F72
:100D580001D142020FD193EA0C0F03D14B0218BF05
:100D6800084608D180EA010000F0004040F0FE404B
:100D780040F40000704740F0FE4040F440007047E7
:100D88004FF0FF0C1CEAD0521EBF1CEAD15392EA66
:100D98000C0F93EA0C0F69D0A2EB030280EA010C56
:100DA80049024FEA402037D04FF0805343EA1111EF
:100DB80043EA10130CF000408B4238BF5B0042F14D
:100DC8007D024FF4000C8B4224BF5B1A40EA0C00F2
:100DD800B3EB510F24BFA3EB510340EA5C00B3EB24
:100DE800910F24BFA3EB910340EA9C00B3EBD10F12
:100DF80024BFA3EBD10340EADC001B0118BF5FEA64
:100E08001C1CE0D1FD2A3FF650AF8B4240EBC2508C
:100E180008BF20F0010070470CF0004C4CEA50204D
:100E28007F32C2BFD2F1FF0340EAC250704740F49C
:100E380000004FF00003013A37E792F0000F00F08E
:100E4800004C02BF400010F4000F013AF9D040EA0C
:100E58000C0093F0000F01F0004C02BF490011F4A0
:100E6800000F013BF9D041EA0C0195E70CEAD15398
:100E780092EA0C0F08D142027FF47DAF93EA0C0F7F
:100E88007FF470AF084676E793EA0C0F04D14B0263
:100E98003FF44CAF08466EE730F0004C18BF31F015
:100EA800004CCAD130F000427FF45CAF31F000430F
:100EB8007FF43CAF5FE700BF42000ED2B2F1FE4FB5
:100EC8000BD34FF09E03B3EB126209D44FEA002311
:100ED80043F0004323FA02F070474FF000007047D8
:100EE80012F1610F01D1420202D14FF0FF30704779
:100EF8004FF00000704700BFF0B54FF6FF0EDE431D
:100F080001270F24DFF85CC03602DCF80C5006F429
:100F1800E06605EA0E0545F0BF6545F400352E4349
:100F28005509AD0005F16045CCF80C6005F5614543
:100F38002E6802F01F0C07FA0CF7374302F16042E3
:100F4800C3F1040644FA03F302F561422F600B4033
:100F5800B04092F800130343234041EA031382F898
:100F68000033F0BD00ED00E00749084B8A6942F004
:100F780001028A615A6822F0E0625A605A6842EABD
:100F880040605860704700BF0010024000000140F8
:100F980070B4002114244FF00066264B1A461961DC
:100FA800D9605C619961D9611D68234C45F00105E0
:100FB8001D605D682C405C601C68204D24F08474C2
:100FC80024F480341C601C6824F480241C605C6851
:100FD80024F4FE045C609960AE60196841F48031C5
:100FE800196013685B0CFCD04FF48063536053683E
:100FF8000238C0B243EA804050605368104843F456
:101008008033536003680B4943F03203036013686D
:1010180043F0807313600B685B0EFCD04B68054A85
:1010280043F002034B605368C3F38103022BFAD1E8
:1010380070BC7047001002400000FFF800ED00E0AF
:10104800002002402DE9F04F092087B0FFF7A0FFEC
:101058004FF41651482008F075FC482008F0F4FBBE
:1010680008F04CFB01F078F84FF47843D74ADFF8E2
:1010780074930DF10C0A92885046D549A9F80030AE
:1010880008F0A6FDDFF860B318274FF4784810245D
:101098000C264FF6FF7007F065FE3B46CDE9007B56
:1010A800C82228211E20A9F8008008F037F8C94B6B
:1010B800C822CDE90043462123461E2008F02EF819
:1010C800C54A234601920094C8225A211E2008F0DE
:1010D80025F82346CDE9004AC8226E211E2008F0D3
:1010E8001DF8BE49BE4DC822CDE9006133468221B4
:1010F8001E2008F013F82B684FF47A70B3FA83F3C4
:101108005B092B6008F0D2FB002007F02BFE3B4662
:10111800CDE9007BC82228211E20A9F8008007F00D
:10112800FDFFAC4B00940193C822234646211E20A4
:1011380007F0F4FFA84A234601920094C8225A21D6
:101148001E2007F0EBFF2346CDE9004AC8226E2196
:101158001E2007F0E3FFA149C822019133468221EE
:1011680000961E2007F0DAFF2B684FF47A70B3FA66
:1011780083F35B092B6008F099FB1F2007F0F2FD51
:101188003B46CDE9007BC82228211E20A9F8008013
:1011980007F0C4FF8F4B00940193C82223464621D1
:1011A8001E2007F0BBFF8C4A234601920094C822F8
:1011B8005A211E2007F0B2FF2346CDE9004AC82273
:1011C8006E211E2007F0AAFF8449C82201913346E8
:1011D800822100961E2007F0A1FF2B684FF47A7039
:1011E800B3FA83F35B092B6008F060FB404607F015
:1011F800B9FD3B46CDE9007BC82228211E20A9F86D
:10120800008007F08BFF734B00940193C82223469C
:1012180046211E2007F082FF6F4A23460192009460
:10122800C8225A211E2007F079FF2346CDE9004A3B
:10123800C8226E211E2007F071FF6849C82201915B
:101248003346822100961E2007F068FF2B684FF472
:101258007A70B3FA83F35B092B6008F027FB4FF62B
:101268001F0007F07FFD3B46CDE9007BC8222821FF
:101278001E20A9F8008007F051FF564B00940193F7
:10128800C822234646211E2007F048FF524A23461B
:1012980001920094C8225A211E2007F03FFF2346DE
:1012A800CDE9004AC8226E211E2007F037FF4B49BE
:1012B800C82201913346822100961E2007F02EFF96
:1012C8002B684FF47A70B3FA83F35B092B6008F04C
:1012D800EDFA4FF4FC6007F045FD3B46CDE9007B95
:1012E800C82228211E20A9F8008007F017FF394BD3
:1012F80000940193C822234646211E2007F00EFFC2
:10130800354A234601920094C8225A211E2007F02C
:1013180005FF2346CDE9004AC8226E211E2007F0AA
:10132800FDFE2E49C82201913346822100961E20D7
:1013380007F0F4FE2B684FF47A70B3FA83F35B0975
:101348002B6008F0B3FA47F6FF7007F00BFD3B4639
:10135800CDE9007BC82228211E20A9F8008007F0CB
:10136800DDFE1C4B00940193C822234646211E2013
:1013780007F0D4FE184A234601920094C8225A2145
:101388001E2007F0CBFE2346CDE9004AC8226E2175
:101398001E2007F0C3FE1149C8220191334682215D
:1013A80000961E2007F0BAFE2B684FF47A70B3FA45
:1013B80083F35B092B6008F079FA4FF6E07007F0C9
:1013C800D1FC3B46CDE9007BC8220FE09C00002001
:1013D800A0AD0008BCAD0008C8AD0008D8AD000835
:1013E800A001214284000020ACAD000828211E2065
:1013F800A9F8008007F092FE8B4B00940193C82255
:10140800234646211E2007F089FE884A234601927A
:101418000094C8225A211E2007F080FE2346CDE9F9
:10142800004AC8226E211E2007F078FE8049C82293
:1014380001913346822100961E2007F06FFE2B682B
:101448004FF47A70B3FA83F35B092B6008F02EFA35
:101458004FF6074007F086FC3B46CDE9007BC822E3
:1014680028211E20A9F8008007F058FE6E4B009432
:101478000193C822234646211E2007F04FFE6B4ADF
:10148800234601920094C8225A211E2007F046FEE6
:101498002346CDE9004AC8226E211E2007F03EFEF1
:1014A8006349C82201913346822100961E2007F025
:1014B80035FE2B684FF47A70B3FA83F35B092B601F
:1014C80008F0F4F948F2304007F04CFC3B46CDE90F
:1014D800007BC82228211E20A9F8008007F01EFEE4
:1014E800514B00940193C822234646211E2007F041
:1014F80015FE4E4A234601920094C8225A211E2006
:1015080007F00CFE2346CDE9004AC8226E211E20B2
:1015180007F004FE4649C82201913346822100960D
:101528001E2007F0FBFD2B684FF47A70B3FA83F3A3
:101538005B092B6008F0BAF94CF2186007F012FC4E
:101548003B46CDE9007BC82228211E20A9F800804F
:1015580007F0E4FD344B00940193C822234646214A
:101568001E2007F0DBFD314A234601920094C82271
:101578005A211E2007F0D2FD2346CDE9004AC82291
:101588006E211E2007F0CAFD2949C8220191334661
:10159800822100961E2007F0C1FD2B684FF47A7057
:1015A800B3FA83F35B092B6008F080F94BF64040EF
:1015B80007F0D8FB3B460097CDF804B0C822282195
:1015C8001E20A9F8008007F0A9FD174B009401938D
:1015D800C822234646211E2007F0A0FD134A2346B1
:1015E80001920094C8225A211E2007F097FD234635
:1015F8000094CDF804A0C8226E211E2007F08EFDAD
:101608000B49334601910096C82282211E2007F01B
:1016180085FD2B684FF47A70B3FA83F35B092B606E
:1016280008F044F930E500BFBCAD0008C8AD0008BB
:10163800D8AD000808B50A2008F038F9094B1B682E
:10164800012B0BD10849094A0B68B3FA83F35B09EC
:101658000B601368B3FA83F35B0913600122044B30
:101668005A6108BD00012142A0012142888122421D
:101678000004014008B50A2008F018F9064B1B6859
:101688002BB9064A1368B3FA83F35B091360202267
:10169800034B5A6108BD00BF14012242A001214238
:1016A8000004014008B50A2008F000F9064B1B6841
:1016B8002BB9064A1368B3FA83F35B0913604FF436
:1016C8000042034B5A6108BD3C01214288812242F5
:1016D8000004014030B44FF400724FF4807580214B
:1016E800044B054C5D615A61E060596130BC196179
:1016F8001A61704700100140000C014048F689113A
:10170800F8B54FF0883200274FF480764FF4007513
:1017180040241148114B80881A6088425A60DF6063
:10172800C3F81064C3F81454C3F8144410D04FF02D
:10173800333240264FF400754FF6FF74074B0849C3
:1017480098680E6180B20D611A605A60DC60F8BD5D
:10175800022008F091F8EAE79C000020000C014004
:101768000010014070B44FF4007280244FF480766A
:10177800074B084D5E615A61E8605C611C611A6143
:101788001E615A61E9605C611C611A6170BC704736
:1017980000100140000C014030B44FF400724FF4C7
:1017A80080758021044B054C1D615A61E0605961C8
:1017B80030BC19611A61704700100140000C0140EB
:1017C8002DE9F04749F241348D4B9A88B3F80AC0A5
:1017D800A2429F8936D045F21034A24232D046F652
:1017E8000404A24227D041F66314A24200F0A2806A
:1017F80045F21054A2425BD09A79012A03D11B8882
:10180800013B181A80B24FF4007280244FF480769E
:101818007C4B7D4D5E615A61C5F80CC05C611C61F2
:101828001A611E615A61E8605C611C611A615E613F
:101838005A61EF6031E09A79012A03D11B88013B94
:10184800181A80B24FF4007280244FF480766D4BE2
:101858006D4D4FEA10285FFA80FE080A5E61C9B232
:101868005A61C5F80CC05C611C611A611E615A613D
:10187800C5F80C805C611C611A611E615A61C5F86B
:101888000CE05C611C611A615E615A61EF605C6129
:101898001C611A611E615A61E8605C611C611A6111
:1018A8001E615A61E9605C611C611A61BDE8F087DC
:1018B8004FF400724FF480768024524B524D0CF155
:1018C800010807F1010E5E614FEA10295A611FFAFB
:1018D80088F8C5F80CC01FFA8EFE5FFA80FC080A6B
:1018E8005C61C9B21C611A611E615A61C5F80C902D
:1018F8005C611C611A615E615A61C5F80C805C61AB
:101908001C611A611E615A61C5F80CC05C611C61DA
:101918001A615E615A61EF605C611C611A611E6147
:101928005A61E8605C611C611A615E615A61C5F8C0
:101938000CE0B2E793F806E01A88BEF1000F65D113
:101948004FF400744FF480768025013ADFF8B880B0
:10195800101A2C4A80B256615461C8F80CC04FEA7C
:10196800102CC0B255611561146116615461C8F834
:101978000CE055611561146116615461C8F80CE0FA
:1019880055611561146116615461C8F80CC0556140
:101998001561146116615461C8F80C005561156130
:1019A80014614FF4007080244FF480765B88154AE8
:1019B800154D4FEA112C013BC9B256615061EF60D9
:1019C80054611461106116615061C5F80CC054610E
:1019D8001461106116615061E9601912DBB254613B
:1019E8001461106116615061E960546114611061FD
:1019F80016615061EB60546114611061BDE8F087B5
:101A08009C00002000100140000C01404FF40075BC
:101A180080264FF48078DFF868E0541E174A4FEAB2
:101A280010295FFA80FA2012E4B2C2F814805561D6
:101A3800CEF80CC0566116611561C2F81080556168
:101A4800CEF80C90566116611561C2F81080556188
:101A5800CEF80CA0566116611561C2F81080556168
:101A6800CEF80C00566116611561C2F810805561F8
:101A7800CEF80C4056611661156192E700100140DE
:101A8800000C01402DE9F04F9F4A85B09379918869
:101A9800012B00F0278123B941F66313994200F026
:101AA8002A8149F24133994236D046F604039942D5
:101AB80032D045F21033994200F0988145F2105324
:101AC800994200F08B8141F66313994200F0A88196
:101AD80007284FF400724FF080014FF4807488BFDC
:101AE8004FF480554FF003069CBF884B33F81050D5
:101AF800874B884898BF45F480555C615A61C66039
:101B0800596119611A611C615A61C560596119618D
:101B18001A6105B0BDE8F08F0138C0B206280BD8AD
:101B28007D4B33F8109045F21053994240F04781AD
:101B38004FF45857CC460DE04FF0000946F6040321
:101B4800994249F0080008BF49F00A0940F070813D
:101B5800CC4636274FF4007080244FF4807641F647
:101B6800631A6B4B6B4D5E615861EF605C611C6181
:101B780018611E615861C5F80CC05C611C61186170
:101B880050881388451E5E1E4FEA252E5145EDB23A
:101B98004FEA26280195F6B2B2F80AC0978900F0F4
:101BA800BD8019F0200F00F0FD808342C0F0128143
:101BB80045F21053994240F0B1804FF400728021F1
:101BC8004FF480744FF000090CF1020B1FFA8BF5EB
:101BD80003954F4B4F48039D0CF1010A0CF1030B81
:101BE8001FFA8AFA1FFA8BFBCDF808B05C6107F17F
:101BF800030B5A61C0F80CC0596107F1010C196157
:101C08001A611C615A61C0F80C90596119611A6116
:101C18005C615A61C0F80CA0596107F1020A1961A8
:101C28001A611C615A61C0F80C90596119611A61F6
:101C38005C615A61C560596119611A61029D1FFA98
:101C48008CFC1FFA8AFA1FFA8BFB1C615A61C0F8D8
:101C58000C80596119611A615C615A61C5605961EA
:101C680019611A611C615A61C660596119611A616A
:101C78005C615A61C760596119611A611C615A61D6
:101C8800C0F80C90596119611A615C615A61C0F819
:101C98000CC0596119611A611C615A61C0F80C9035
:101CA800596119611A615C615A61C0F80CA05961E7
:101CB80019611A611C615A61C0F80CE05961196117
:101CC8001A615C615A61C0F80CB0596119611A61F6
:101CD8001C61019C5A61C460596119611A6105B09F
:101CE800BDE8F08F46F6040399423FF415AF41F67C
:101CF8006313994272D007283FF6D3AEDFE800F0AD
:101D0800808E828486888A8C9C000020F4AD00082E
:101D180000100140000C0140E4AD00084FF40072CF
:101D280080214FF480744FF00009434B43485C61B5
:101D38005A61C0F80CC0596119611A611C615A6175
:101D4800C0F80C90596119611A611C615A61C0F898
:101D58000C90596119611A611C615A61C0F80C80B4
:101D6800596119611A611C615A61C660596119612A
:101D78001A615C615A61C760596119611A611C6115
:101D88005A61C0F80C90596119611A611C615A6155
:101D9800C0F80C90596119611A611C615A61C0F848
:101DA8000CE092E783427FF603AF4446B146019EBA
:101DB800F046CDF80490A64610805380F8E645F228
:101DC800103399423FF4C4AE41F6631399423FF48D
:101DD800BFAEB3E6B14644462E46E9E70138C0B285
:101DE80006287FF69DAE4FF000099CE60138C0B288
:101DF80006287FF695AE4FF0000C3627E146A9E697
:101E080006204EE604204CE605204AE6012048E676
:101E1800002046E6032044E6022042E6072040E68A
:101E28000138C0B206287FF67BAE4FF000098FE676
:101E380081463627CC468DE600100140000C014053
:101E48002DE9F04F49F24134954EB388B6F80A802F
:101E5800A342B6F80CE03AD045F21034A34236D08B
:101E680045F21054A34200F0838041F66315AB425B
:101E7800B47900F0C78046F60405AB4221D0012CA6
:101E880003D13388013B181A80B24FF400748025BF
:101E98004FF4807C834B844FC3F814C05C61C7F84F
:101EA8000C805D611D611C61C3F810C05C61F86045
:101EB8005D611D611C61C3F814C05C61C7F80CE06A
:101EC80036E0012C03D13388013B181A80B24FF455
:101ED800007480254FF4807C724B734F4FEA1029B1
:101EE8005FFA80FAC3F814C0080A5C61C9B2C7F87F
:101EF8000C805D611D611C61C3F810C05C61C7F88E
:101F08000C905D611D611C61C3F810C05C61C7F86D
:101F18000CA05D611D611C61C3F814C05C61C7F849
:101F28000CE05D611D611C61C3F810C05C61F86064
:101F38005D6180201D611C61C3F810C05C61F9609F
:101F48005D614FF400711D614FF480751C61368925
:101F5800544B554C5D615961E660586118611961CF
:101F68001D615961E260586118611961BDE8F08F1F
:101F78004FF400744FF4807C80254A4B4A4F08F197
:101F8800010A0EF10109C3F814C04FEA102B5C6175
:101F98001FFA8AFAC7F80C801FFA89F95FFA80F8E5
:101FA800080A5D61C9B21D611C61C3F810C05C619B
:101FB800C7F80CB05D611D611C61C3F814C05C6199
:101FC800C7F80CA05D611D611C61C3F810C05C619D
:101FD800C7F80C805D611D611C61C3F814C05C61A9
:101FE800C7F80CE05D611D611C61C3F810C05C613D
:101FF800F8605D611D611C61C3F814C05C61C7F8BD
:102008000C9095E71CB93388013B181A80B24FF43D
:10201800007480254FF4807C224B234F4FEA10290F
:102028005FFA80FA080AC9B2C3F814C05C61C7F83D
:102038000C805D611D611C61C3F810C05C61C7F84C
:102048000C905D611D611C61C3F810C05C61C7F82C
:102058000CA05D611D611C61C3F810C05C61C7F80C
:102068000C905D611D611C61C3F810C05C61C7F80C
:102078000CA05D611D611C61C3F814C05C61C7F8E8
:102088000CE05D611D611C61C3F810C05C61F86003
:102098005D611D611C61C3F810C05C61F96040E7B7
:1020A8009C00002000100140000C014000000000CE
:1020B8002DE9F041BE224FF4007580264FF4807858
:1020C8000523234C234FC4F814806561FA606661C8
:1020D80026612561C4F810806561FB606661266130
:1020E8002561C4F810806561FEF7ECF916A3D3E901
:1020F8000023FEF751FAFEF761FC00230121FF22BD
:10210800F860666126612561C4F810806561F96030
:10211800666126612561C4F810806561FA606661B0
:1021280026612561C4F810806561FB6066612661DF
:102138002561C4F810806561FB60666126612561D0
:10214800BDE8F081AFF300806666666666660440A7
:1021580000100140000C01400120BC4B2DE9F04F5C
:102168009A6983B042F008029A619A69B84D42F0C0
:1021780010029A619A69B74E02439A61FEF7F4FE1B
:102188004FF033324FF6FF716B68322023F47F63D0
:1021980023F00F036B606B684FF4007743F44C73C4
:1021A80043F003036B602B684FF0800823F07F43F4
:1021B8002B602B684FF4807943F04C532B60EB680D
:1021C8004FF0000A43F4F863EB6072603260F1602C
:1021D80007F06CFB0123C5F8149032206F61C6F834
:1021E8000CA0C5F81480C5F810802F61C5F81090B0
:1021F8006F61F360C5F81480C5F810802F6107F08F
:1022080055FB4FF0883348F689124021924CC5F8A7
:1022180014906F61C6F80CA0C5F81480C5F810803A
:102228002F6133607360A388C6F80CA09342C5F889
:1022380010906F61696100F0DB824FF400704027F5
:102248004FF033354FF6FF76824B814A9968176114
:10225800106188B2A0F1FF0292B2B2F57F4F1D6003
:10226800A0805D60DE6080F03182B0F5134F00F031
:102278002D820146794807F093FC49F24132A38840
:10228800934201F0118446F60402934201F032852C
:1022980045F21032934202F0A98045F2105293425F
:1022A80000F0AE8249F22532934201F0C68549F228
:1022B8002832934203F0288049F22032934204F0F6
:1022C800378149F23132934203F0818345F2084263
:1022D800934204F0A08341F20552934204F0EC8546
:1022E8004BF20552934205F021844CF20552934279
:1022F80005F0A28748F68912934205F0B78144F2A7
:102308003152934203F08C8644F23552934206F0E0
:10231800708241F66312934242F059804FF400767E
:102328004FF48073E2224A4DDFF8288180276B61E1
:102338001D206E61C8F80C2002226F612F612E618A
:102348002B616E61C8F80C006F612F612E612B61E3
:102358006E61C8F80C206F612F612E612B610093AC
:1023680004234FF001094FF0E00A4FF0030B6E61B0
:102378006420C8F80C306F612F612E6107F07CFA79
:10238800009B0A206B616E61C8F80CA06F612F6119
:102398002E612B6100936E61C8F80C906F612F61FC
:1023A8002E6107F083FA009B0C206B616E61C8F800
:1023B8000CA06F612F612E612B6100936E61C8F8CC
:1023C8000CB06F612F612E6107F070FA009B0A2034
:1023D8006B6100936E61C8F80C906F612F612E617C
:1023E80007F064FA4FF0E60AFF204FF02F0E009B2B
:1023F80000226B616E61C8F80CA06F612F612E61BD
:102408002B616E61C8F80CE06F612F612E612B6142
:102418006E61C8F80C006F612F612E612B616E61CF
:10242800C8F80C00B0206F612F612E616B616E617E
:10243800C8F80C0020206F612F612E612B616E613E
:10244800C8F80C0040F21F306F6109E0001002402C
:1024580000100140000C01409C00002004AE000860
:102468002F612E612B616E61C8F80C206F612F619E
:102478002E612B616E61C8F80CB06F612F612E61FF
:102488002B616E61C8F80C0040F2DF106F612F619C
:102498002E612B616E61C8F80C906F612F612E61FF
:1024A8002B616E61C8F80C00B4206F612F612E613A
:1024B8002B616E61C8F80C206F612F612E616B6112
:1024C8006E61C8F80C0004206F612F612E612B61CA
:1024D8006E61C8F80C0040F21F406F612F612E61D9
:1024E8002B616E61C8F80C002E206F612F612E6180
:1024F8002B616E61C8F80C206F612F612E612B6112
:102508006E61C8F80C00B6206F612F612E612B61D7
:102518006E61C8F80C206F612F612E612B616E61AE
:10252800C8F80C206F612F612E612B616E61C8F8AD
:102538000C206F612F612E612B616E61C8F80C2031
:102548006F612F612E616B616E61C8F80C0002200B
:102558006F612F612E612B616E61C8F80C004FF41A
:1025680003706F612F612E612B616E61C8F80C00DA
:1025780017206F612F612E612B616E61C8F80C20E6
:102588006F612F612E612B616E61C8F80C001520F8
:102598006F612F612E612B616E61C8F80C00F0200D
:1025A8006F612F612E612B616E61C8F80C206F611D
:1025B8002F612E612B616E61C8F80C206F612F614D
:1025C8002E616B616E61C8F80C0029206F612F6164
:1025D8002E612B616E61C8F80CB06F612F612E619E
:1025E8006B616E61C8F80C00D0206F612F612E619D
:1025F8006B616E61C8F80C00BE204FF0FE0C6F6175
:102608002F612E612B616E61C8F80C206F612F61FC
:102618002E616B616E61C8F80C0005206F61B821EE
:102628002F612E612B616E61C8F80C006F612F61FC
:102638002E612B616E61C8F80CC06F612F612E612D
:102648002B616E61C8F80C906F612F612E612B6150
:102658006E61C8F80C206F612F612E612B616E616D
:10266800C8F80C206F612F612E612B616E61C8F86C
:102678000C20BA226F6164202F612E616B616E613C
:10268800C8F80C106F612F612E612B616E61C8F85C
:102698000CB06F612F612E612B616E61C8F80C90D0
:1026A8006F612F612E616B616E61C8F80C206F61DC
:1026B8002F612E612B616E61C8F80C906F612F61DC
:1026C8002E61FFF7F5FCA28801F091B9D3234FF4EE
:1026D800007680274FF48079474DDFF82081C5F8D0
:1026E80014906E61C8F80C306F612F612E61FFF78E
:1026F80005F8FFF703F8FFF701F80002A080FEF7DE
:10270800FDFF49F24133A188014389B29942A18072
:102718003FF4B0ADBF23C5F814906E61C8F80C3013
:102728006F612F612E61FEF7E9FFFEF7E7FFFEF705
:10273800E5FFFEF7E3FF0002A080FEF7DFFF46F6A5
:102748000403A188014389B29942A1803FF492AD64
:10275800D420FEF7BFFFFEF7D1FFFEF7CFFFFEF74D
:10276800CDFF0002A080FEF7C9FF45F21033A18813
:10277800014389B29942A1803FF47CAD4FF45A409D
:10278800FEF7A8FFFEF7BAFF4FF45B40FEF7A2FF83
:10279800FEF7B4FF03024FF45C40A380FEF79AFFF4
:1027A800FEF7ACFFA38840EA030189B2B1F5004FF8
:1027B800A18003F0308445F2105399423FF45AAD9A
:1027C800A120FEF787FFFEF799FFA080FEF796FF8E
:1027D8000002A080FEF792FF45F26172A38840EAEA
:1027E800030189B2914208BF41F66311A18041E516
:1027F800022007F041F820E500100140000C0140DC
:1028080055214FF47040FEF7ADFFAA214FF20100A9
:10281800FEF7A8FF52214FF20200FEF7A3FF08219E
:102828004FF20300FEF79EFF01214FF20400FEF76E
:1028380099FF0D214FF43040FEF794FF0D214BF224
:102848000100FEF78FFF0D214BF20200FEF78AFF11
:1028580034214FF43640FEF785FF34214BF20160F6
:10286800FEF780FF34214BF20260FEF77BFF0D215B
:102878004FF43140FEF776FF0D214BF20110FEF7C1
:1028880071FF0D214BF20210FEF76CFF34214FF45B
:102898003740FEF767FF34214BF20170FEF762FF05
:1028A80034214BF20270FEF75DFF00214FF43240F5
:1028B800FEF758FF00214BF20120FEF753FF0021DD
:1028C8004BF20220FEF74EFF24214FF43840FEF76A
:1028D80049FF24214BF60100FEF744FF24214BF663
:1028E8000200FEF73FFF01214FF43F40FEF73AFF99
:1028F8000F214FF43340FEF735FF0F214BF2013023
:10290800FEF730FF0F214BF20230FEF72BFF342188
:102918004FF43940FEF726FF34214BF60110FEF73D
:1029280021FF34214BF60210FEF71CFF08214FF45B
:102938003540FEF717FF08214BF20150FEF712FF52
:1029480008214BF20250FEF70DFF03214FF44240DD
:10295800FEF708FF24214FF43A40FEF703FF242135
:102968004BF60120FEF7FEFE24214BF60220FEF76F
:10297800F9FE00214FF43C40FEF7F4FE78214BF6B7
:102988000140FEF7EFFE00214BF60240FEF7EAFE9B
:1029980000214FF43D40FEF7E5FE78214BF601504B
:1029A800FEF7E0FE00214BF60250FEF7DBFE0021A9
:1029B8004FF43E40FEF7D6FE64214BF60160FEF769
:1029C800D1FE00214FF45140FEF7CCFE33214DF2E9
:1029D8000110FEF7C7FE00214DF20210FEF7C2FEFD
:1029E80034214DF20310FEF7BDFE00214DF2041014
:1029F800FEF7B8FE3A214DF20510FEF7B3FE0021AE
:102A08004DF20610FEF7AEFE4A214DF20710FEF712
:102A1800A9FE00214DF20810FEF7A4FE5C214DF23C
:102A28000910FEF79FFE00214DF20A10FEF79AFEEC
:102A380081214DF20B10FEF795FE00214DF20C108E
:102A4800FEF790FEA6214DF20D10FEF78BFE002139
:102A58004DF20E10FEF786FEE5214DF20F10FEF73F
:102A680081FE01214DF21010FEF77CFE13214DF27C
:102A78001110FEF777FE01214DF21210FEF772FEDB
:102A880054214DF21310FEF76DFE01214DF2141082
:102A9800FEF768FE82214DF21510FEF763FE012154
:102AA8004DF21610FEF75EFECA214DF21710FEF722
:102AB80059FE02214DF21810FEF754FE00214DF286
:102AC8001910FEF74FFE02214DF21A10FEF74AFECA
:102AD80001214DF21B10FEF745FE02214DF21C109C
:102AE800FEF740FE34214DF21D10FEF73BFE022199
:102AF8004DF21E10FEF736FE67214DF21F10FEF74D
:102B080031FE02214DF22010FEF72CFE84214DF2F9
:102B18002110FEF727FE02214DF22210FEF722FEB9
:102B2800A4214DF22310FEF71DFE02214DF22410C0
:102B3800FEF718FEB7214DF22510FEF713FE02210D
:102B48004DF22610FEF70EFECF214DF22710FEF7AC
:102B580009FE02214DF22810FEF704FEDE214DF297
:102B68002910FEF7FFFD02214DF22A10FEF7FAFDAB
:102B7800F2214DF22B10FEF7F5FD02214DF22C103B
:102B8800FEF7F0FDFE214DF22D10FEF7EBFD0321BF
:102B98004DF22E10FEF7E6FD10214DF22F10FEF734
:102BA800E1FD03214DF23010FEF7DCFD33214DF23B
:102BB8003110FEF7D7FD03214DF23210FEF7D2FD9A
:102BC8006D214DF23310FEF7CDFD00214FF4524038
:102BD800FEF7C8FD33214DF20120FEF7C3FD0021A9
:102BE8004DF20220FEF7BEFD34214DF20320FEF720
:102BF800B9FD00214DF20420FEF7B4FD3A214DF253
:102C08000520FEF7AFFD00214DF20620FEF7AAFDD4
:102C18004A214DF20720FEF7A5FD00214DF20820BC
:102C2800FEF7A0FD5C214DF20920FEF79BFD002177
:102C38004DF20A20FEF796FD81214DF20B20FEF79A
:102C480091FD00214DF20C20FEF78CFDA6214DF2DE
:102C58000D20FEF787FD00214DF20E20FEF782FDC4
:102C6800E5214DF20F20FEF77DFD01214DF21020E8
:102C7800FEF778FD13214DF21120FEF773FD0121B7
:102C88004DF21220FEF76EFD54214DF21320FEF78F
:102C980069FD01214DF21420FEF764FD82214DF2F9
:102CA8001520FEF75FFD01214DF21620FEF75AFDB3
:102CB800CA214DF21720FEF755FD02214DF21820CA
:102CC800FEF750FD00214DF21920FEF74BFD0221C1
:102CD8004DF21A20FEF746FD01214DF21B20FEF7AA
:102CE80041FD02214DF21C20FEF73CFD34214DF23E
:102CF8001D20FEF737FD02214DF21E20FEF732FDA2
:102D080067214DF21F20FEF72DFD02214DF22020F4
:102D1800FEF728FD84214DF22120FEF723FD022134
:102D28004DF22220FEF71EFDA4214DF22320FEF7CE
:102D380019FD02214DF22420FEF714FDB7214DF2B2
:102D48002520FEF70FFD02214DF22620FEF70AFD91
:102D5800CF214DF22720FEF705FD02214DF2282054
:102D6800FEF700FDDE214DF22920FEF7FBFC0221D3
:102D78004DF22A20FEF7F6FCF2214DF22B20FEF749
:102D8800F1FC02214DF22C20FEF7ECFCFE214DF265
:102D98002D20FEF7E7FC03214DF22E20FEF7E2FC82
:102DA80010214DF22F20FEF7DDFC03214DF23020DB
:102DB800FEF7D8FC33214DF23120FEF7D3FC032176
:102DC8004DF23220FEF7CEFC6D214DF23320FEF796
:102DD800C9FC00214FF45340FEF7C4FC33214DF2E7
:102DE8000130FEF7BFFC00214DF20230FEF7BAFCBD
:102DF80034214DF20330FEF7B5FC00214DF20430CA
:102E0800FEF7B0FC3A214DF20530FEF7ABFC00218D
:102E18004DF20630FEF7A6FC4A214DF20730FEF7C8
:102E2800A1FC00214DF20830FEF79CFC5C214DF21C
:102E38000930FEF797FC00214DF20A30FEF792FCAC
:102E480081214DF20B30FEF78DFC00214DF20C3044
:102E5800FEF788FCA6214DF20D30FEF783FC002119
:102E68004DF20E30FEF77EFCE5214DF20F30FEF7F5
:102E780079FC01214DF21030FEF774FC13214DF25C
:102E88001130FEF76FFC01214DF21230FEF76AFC9B
:102E980054214DF21330FEF765FC01214DF2143038
:102EA800FEF760FC82214DF21530FEF75BFC012134
:102EB8004DF21630FEF756FCCA214DF21730FEF7D8
:102EC80051FC02214DF21830FEF74CFC00214DF266
:102ED8001930FEF747FC02214DF21A30FEF742FC8A
:102EE80001214DF21B30FEF73DFC02214DF21C3052
:102EF800FEF738FC34214DF21D30FEF733FC022179
:102F08004DF21E30FEF72EFC67214DF21F30FEF702
:102F180029FC02214DF22030FEF724FC84214DF2D9
:102F28002130FEF71FFC02214DF22230FEF71AFC79
:102F3800A4214DF22330FEF715FC02214DF2243076
:102F4800FEF710FCB7214DF22530FEF70BFC0221ED
:102F58004DF22630FEF706FCCF214DF22730FEF762
:102F680001FC02214DF22830FEF7FCFBDE214DF278
:102F78002930FEF7F7FB02214DF22A30FEF7F2FB6B
:102F8800F2214DF22B30FEF7EDFB02214DF22C30F1
:102F9800FEF7E8FBFE214DF22D30FEF7E3FB03219F
:102FA8004DF22E30FEF7DEFB10214DF22F30FEF7EA
:102FB800D9FB03214DF23030FEF7D4FB33214DF21B
:102FC8003130FEF7CFFB03214DF23230FEF7CAFB5A
:102FD8006D214DF23330FEF7C5FB00214FF454400C
:102FE800FEF7C0FB33214DF20140FEF7BBFB002189
:102FF8004DF20240FEF7B6FB34214DF20340FEF7D6
:10300800B1FB00214DF20440FEF7ACFB3A214DF232
:103018000540FEF7A7FB00214DF20640FEF7A2FB94
:103028004A214DF20740FEF79DFB00214DF2084072
:10303800FEF798FB5C214DF20940FEF793FB002157
:103048004DF20A40FEF78EFB81214DF20B40FEF750
:1030580089FB00214DF20C40FEF784FBA6214DF2BE
:103068000D40FEF77FFB00214DF20E40FEF77AFB84
:10307800E5214DF20F40FEF775FB01214DF210409E
:10308800FEF770FB13214DF21140FEF76BFB012197
:103098004DF21240FEF766FB54214DF21340FEF745
:1030A80061FB01214DF21440FEF75CFB82214DF2D9
:1030B8001540FEF757FB01214DF21640FEF752FB73
:1030C800CA214DF21740FEF74DFB02214DF2184080
:1030D800FEF748FB00214DF21940FEF743FB0221A1
:1030E8004DF21A40FEF73EFB01214DF21B40FEF760
:1030F80039FB02214DF21C40FEF734FB34214DF21E
:103108001D40FEF72FFB02214DF21E40FEF72AFB61
:1031180067214DF21F40FEF725FB02214DF22040AA
:10312800FEF720FB84214DF22140FEF71BFB022114
:103138004DF22240FEF716FBA4214DF22340FEF784
:1031480011FB02214DF22440FEF70CFBB7214DF292
:103158002540FEF707FB02214DF22640FEF702FB51
:10316800CF214DF22740FEF7FDFA02214DF228400B
:10317800FEF7F8FADE214DF22940FEF7F3FA0221B4
:103188004DF22A40FEF7EEFAF2214DF22B40FEF7FF
:10319800E9FA02214DF22C40FEF7E4FAFE214DF245
:1031A8002D40FEF7DFFA03214DF22E40FEF7DAFA42
:1031B80010214DF22F40FEF7D5FA03214DF2304091
:1031C800FEF7D0FA33214DF23140FEF7CBFA032156
:1031D8004DF23240FEF7C6FA6D214DF23340FEF74C
:1031E800C1FA00214FF45540FEF7BCFA33214DF2E5
:1031F8000150FEF7B7FA00214DF20250FEF7B2FA7D
:1032080034214DF20350FEF7ADFA00214DF204507F
:10321800FEF7A8FA3A214DF20550FEF7A3FA00216D
:103228004DF20650FEF79EFA4A214DF20750FEF77E
:1032380099FA00214DF20850FEF794FA5C214DF2FC
:103248000950FEF78FFA00214DF20A50FEF78AFA6C
:1032580081214DF20B50FEF785FA00214DF20C50FA
:10326800FEF780FAA6214DF20D50FEF77BFA0021F9
:103278004DF20E50FEF776FAE5214DF20F50FEF7AB
:1032880071FA01214DF21050FEF76CFA13214DF23C
:103298001150FEF767FA01214DF21250FEF762FA5B
:1032A80054214DF21350FEF75DFA01214DF21450EE
:1032B800FEF758FA82214DF21550FEF753FA012114
:1032C8004DF21650FEF74EFACA214DF21750FEF78E
:1032D80049FA02214DF21850FEF744FA00214DF246
:1032E8001950FEF73FFA02214DF21A50FEF73AFA4A
:1032F80001214DF21B50FEF735FA02214DF21C5008
:10330800FEF730FA34214DF21D50FEF72BFA022158
:103318004DF21E50FEF726FA67214DF21F50FEF7B8
:1033280021FA02214DF22050FEF71CFA84214DF2B9
:103338002150FEF717FA02214DF22250FEF712FA39
:10334800A4214DF22350FEF70DFA02214DF224502C
:10335800FEF708FAB7214DF22550FEF703FA0221CD
:103368004DF22650FEF7FEF9CF214DF22750FEF719
:10337800F9F902214DF22850FEF7F4F9DE214DF259
:103388002950FEF7EFF902214DF22A50FEF7EAF92B
:10339800F2214DF22B50FEF7E5F902214DF22C50A7
:1033A800FEF7E0F9FE214DF22D50FEF7DBF903217F
:1033B8004DF22E50FEF7D6F910214DF22F50FEF7A0
:1033C800D1F903214DF23050FEF7CCF933214DF2FB
:1033D8003150FEF7C7F903214DF23250FEF7C2F91A
:1033E8006D214DF23350FEF7BDF900214FF45640E0
:1033F800FEF7B8F933214DF20160FEF7B3F9002169
:103408004DF20260FEF7AEF934214DF20360FEF78B
:10341800A9F900214DF20460FEF7A4F93A214DF212
:103428000560FEF79FF900214DF20660FEF79AF954
:103438004A214DF20760FEF795F900214DF2086028
:10344800FEF790F95C214DF20960FEF78BF9002137
:103458004DF20A60FEF786F981214DF20B60FEF706
:1034680081F900214DF20C60FEF77CF9A6214DF29E
:103478000D60FEF777F900214DF20E60FEF772F944
:10348800E5214DF20F60FEF76DF901214DF2106054
:10349800FEF768F913214DF21160FEF763F9012177
:1034A8004DF21260FEF75EF954214DF21360FEF7FB
:1034B80059F901214DF21460FEF754F982214DF2B9
:1034C8001560FEF74FF901214DF21660FEF74AF933
:1034D800CA214DF21760FEF745F902214DF2186036
:1034E800FEF740F900214DF21960FEF73BF9022181
:1034F8004DF21A60FEF736F901214DF21B60FEF716
:1035080031F902214DF21C60FEF72CF934214DF2FD
:103518001D60FEF727F902214DF21E60FEF722F921
:1035280067214DF21F60FEF71DF902214DF2206060
:10353800FEF718F984214DF22160FEF713F90221F4
:103548004DF22260FEF70EF9A4214DF22360FEF73A
:1035580009F902214DF22460FEF704F9B7214DF272
:103568002560FEF7FFF802214DF22660FEF7FAF813
:10357800CF214DF22760FEF7F5F802214DF22860C1
:10358800FEF7F0F8DE214DF22960FEF7EBF8022194
:103598004DF22A60FEF7E6F8F2214DF22B60FEF7B5
:1035A800E1F802214DF22C60FEF7DCF8FE214DF225
:1035B8002D60FEF7D7F84FF4007680274FF480731C
:1035C80003224DF22E6B4DF22F6A4FF010094DF287
:1035D800306E4DF2316C33209D4DDFF878826B618F
:1035E8006E61C8F80CB06F612F612E612B616E613E
:1035F800C8F80C206F612F612E616B616E61C8F88D
:103608000CA06F612F612E612B616E61C8F80C9060
:103618006F612F612E616B616E61C8F80CE06F619C
:103628002F612E612B616E61C8F80C206F612F61CC
:103638002E616B616E61C8F80CC06F612F612E61DD
:103648002B616E61C8F80C004DF232606F612F611A
:103658002E616B616E61C8F80C004DF233606F61CA
:103668002F612E612B616E61C8F80C206F612F618C
:103678002E616B616E61C8F80C006D206F612F615F
:103688002E612B616E61C8F80C004FF470406F61B9
:103698002F612E616B616E61C8F80C0055206F6157
:1036A8002F612E612B616E61C8F80C004FF201008A
:1036B8006F612F612E616B616E61C8F80C00AA20E2
:1036C8006F612F612E612B616E61C8F80C004FF29B
:1036D80002006F612F612E616B616E61C8F80C008A
:1036E80052206F612F612E612B616E61C8F80C004A
:1036F8004FF203006F612F612E616B616E61C8F834
:103708000C0008206F612F612E612B616E61C8F873
:103718000C004FF204006F6100212F612E616B6174
:103728006E61C8F80C004FF431406F612F612E6153
:103738002B616E61C8F80C106F612F612E616B618F
:103748006E61C8F80C00CC206F612F612E612B616F
:103758006E61C8F80C004BF201106F612F612E6189
:103768006B616E61C8F80C004FF436406F612F61D1
:103778002E612B616E61C8F80C106F612F612E618C
:103788006B616E61C8F80C0005206F612F612E61B6
:103798002B616E61C8F80C004FF437406F612F61E0
:1037A8002E616B616E61C8F80C0070206F612F612B
:1037B8002E612B616E61C8F80C004BF201706F61CD
:1037C8002F612E616B616E61C8F80C0070206F610B
:1037D8002F612E612B616E61C8F80C004FF43840E0
:1037E8006F612F612E616B616E61C8F80C0001205A
:1037F8006F612F612E612B616E61C8F80C004BF66A
:1038080001006F612F612E616B616E61C8F80C0059
:103818004BF602006F612F612E612B616E61C8F853
:103828000C206F612F612E616B616E61C8F80C000E
:103838004BF603006F612F612E612B616E61C8F832
:103848000C206F612F612E616B616E6104E000BF17
:1038580000100140000C0140C8F80C006F612F6196
:103868002E612B616E61C8F80C204FF43C426F61E9
:103878002F612E616B616E61C8F80C2002226F61A6
:103888002F612E612B616E61C8F80C204BF6014246
:103898006F612F612E616B616E61C8F80C204BF669
:1038A80002426F614FF4494B2F614FF0D00A2E61ED
:1038B8004CF601192B616E61C8F80C106F612F610D
:1038C8002E616B616E61C8F80C2002226F614FF0A7
:1038D800500C2F614CF6021E2E612B616E61C8F8E8
:1038E8000C106F612F612E616B616E61C8F80CB0AE
:1038F8006F612F612E612B616E61C8F80CA06F613A
:103908002F612E616B616E61C8F80C906F612F6139
:103918002E612B616E61C8F80C204CF603126F61A2
:103928002F612E616B616E61C8F80CE06F612F61C9
:103938002E612B616E61C8F80CC06F612F612E611A
:103948006B616E61C8F80C204CF604126F612F6130
:103958002E612B616E61C8F80CC06F612F612E61FA
:103968006B616E61C8F80C204FF454526F612F617F
:103978002E612B616E61C8F80CC06F612F612E61DA
:103988006B616E61C8F80C204FF468526F612F614B
:103998002E612B616E61C8F80C106F612F612E616A
:1039A8006B616E61C8F80C2055226F612F612E6122
:1039B8002B616E61C8F80C206F612F612E616B61FD
:1039C80000934FF488536E617820C8F80C306F610B
:1039D8002F612E6105F050FF4FF42451009BA288FF
:1039E8006B616E61C8F80C106F612F612E6149F22E
:1039F80041330020B7499A42A07121604FD046F662
:103A080004039A4244D045F210339A4240D045F21A
:103A180010539A4245F094814FF42C51AE4AAF4B63
:103A2800A181A26023600020FEF72CF8012046F651
:103A38000403AB49A2882588086061889A4205FB7F
:103A480001F503D1A679864201F04A84002108468F
:103A5800FDF7B6FE4FF4007080214FF4807622897E
:103A6800A04BA14C5E615861E2605961196118610F
:103A78005DB100224FF6FF77013295421E61586111
:103A8800E760596119611861F6D103B0BDE8F08F9C
:103A98002B22964BA281A360954B2360C3E72B2270
:103AA800924BA281A360BEE7CF20FDF713FE002052
:103AB800FDF772FEC120FDF76FFE3020FDF76CFEAA
:103AC800ED20FDF707FE6420FDF766FE0320FDF7F5
:103AD80063FE1220FDF760FE8120FDF75DFEE82001
:103AE800FDF7F8FD8520FDF757FE1020FDF754FE81
:103AF8007A20FDF751FECB20FDF7ECFD3920FDF7CC
:103B08004BFE2C20FDF748FE0020FDF745FE342033
:103B1800FDF742FE0220FDF73FFEF720FDF7DAFD34
:103B28002020FDF739FEEA20FDF7D4FD0020FDF73F
:103B380033FE0020FDF730FEC020FDF7CBFD1B2033
:103B4800FDF72AFEC120FDF7C5FD0120FDF724FE83
:103B5800C520FDF7BFFD3020FDF71EFE3020FDF724
:103B68001BFEC720FDF7B6FDB720FDF715FE362072
:103B7800FDF7B0FD4820FDF70FFE3A20FDF7AAFD3E
:103B88005520FDF709FEB120FDF7A4FD0020FDF743
:103B980003FE1A20FDF700FEB620FDF79BFD0A2064
:103BA800FDF7FAFDA220FDF7F7FDF220FDF792FDE3
:103BB8000020FDF7F1FD2620FDF78CFD0120FDF723
:103BC800EBFDE020FDF786FD0F20FDF7E5FD2A203F
:103BD800FDF7E2FD2820FDF7DFFD0820FDF7DCFDFD
:103BE8000E20FDF7D9FD0820FDF7D6FD5420FDF77E
:103BF800D3FDA920FDF7D0FD4320FDF7CDFD0A2018
:103C0800FDF7CAFD0F20FDF7C7FD0020FDF7C4FD35
:103C18000020FDF7C1FD0020FDF7BEFD0020FDF7E7
:103C2800BBFDE120FDF756FD0020FDF7B5FD152091
:103C3800FDF7B2FD1720FDF7AFFD0720FDF7ACFD3E
:103C48001120FDF7A9FD0620FDF7A6FD2B20FDF7A5
:103C5800A3FD5620FDF7A0FD3C20FDF79DFD0520A6
:103C6800FDF79AFD1020FDF797FD0F20FDF794FD55
:103C78003F20FDF791FD3F20FDF78EFD0F20FDF75A
:103C88008BFD2B20FDF726FD0020FDF785FD00208C
:103C9800FDF782FD0120FDF77FFD3F20FDF77CFD4C
:103CA8002A20FDF717FD0020FDF776FD0020FDF71F
:103CB80073FD0020FDF770FDEF20FDF76DFD11206D
:103CC800FDF708FD782005F0F1FD2920FDF702FD3C
:103CD800A2888CE6F0004001002C002AE0012003B5
:103CE800A801224200100140000C01402C002A00CB
:103CF8004001E0011120FDF7EDFC142005F0D6FD90
:103D0800D020FDF7E7FC0720FDF746FD4220FDF730
:103D180043FD1D20FDF740FDD120FDF7DBFC002011
:103D2800FDF73AFD1A20FDF737FD0920FDF734FDB0
:103D3800D220FDF7CFFC0120FDF72EFD2220FDF754
:103D48002BFDC020FDF7C6FC1020FDF725FD3B200C
:103D5800FDF722FD0020FDF71FFD0220FDF71CFDE9
:103D68001120FDF719FDC520FDF7B4FC0320FDF770
:103D780013FDC820FDF7AEFC0020FDF70DFD252042
:103D8800FDF70AFD2120FDF707FD0520FDF704FDDD
:103D98000020FDF701FD0A20FDF7FEFC6520FDF778
:103DA800FBFC2520FDF7F8FC7720FDF7F5FC5020FB
:103DB800FDF7F2FC0F20FDF7EFFC0020FDF7ECFC0F
:103DC800F820FDF787FC0120FDF7E6FCFE20FDF753
:103DD80081FC0020FDF7E0FC0220FDF7DDFC20203F
:103DE800FDF778FC3620FDF775FC0820FDF7D4FCBC
:103DF8003A20FDF76FFC5520FDF7CEFC2B20FDF790
:103E080069FC0020FDF7C8FC0020FDF7C5FC012077
:103E1800FDF7C2FC3F20FDF7BFFC2A20FDF75AFC46
:103E28000020FDF7B9FC0020FDF7B6FC0120FDF7E6
:103E3800B3FCDF20FDF7B0FC44E780224FF40071AB
:103E48004FF480704FF0E50B47F6F00A01278B4BD3
:103E58008B4D58614FF0020959614FF4E068C5F87D
:103E68000CB05A611A61196118615961C5F80CA042
:103E78005A611A61196158615961EF600327002678
:103E88005A6141F2300E1A614FF0040C1961186141
:103E98005961E8605A611A61196158615961C5F838
:103EA8000C905A611A61196118615961C5F80C8042
:103EB8005A611A61196158615961EF6008275A619E
:103EC8001A61196118615961C5F80CE05A611A61E3
:103ED800196158615961C5F80CC05A611A611961B4
:103EE80018615961EE605A611A6119615861596126
:103EF800EF6040F202275A611A611961186159612D
:103F0800EF6009275A611A61196158615961EF60B8
:103F18000A275A611A61196118615961EE605A617C
:103F28001A61196158615961EF600C275A611A6169
:103F3800196118615961EE605A611A611961586115
:103F48005961EF600D275A611A6119611861596149
:103F5800EE605A611A61196158615961EF600F2763
:103F68005A611A61196118615961EE605A611A61E2
:103F7800196158615961EF6010275A611A61196116
:103F880018615961EE605A611A6119615861596185
:103F9800EF6011275A611A61196118615961EE6061
:103FA8005A611A61196158615961EF6007275A61AE
:103FB8001A61196118615961EF6012275A611A6113
:103FC800196158615961EF6013275A611A611961C3
:103FD80018615961EE605A611A6119615861596135
:103FE800EF6007275A611A61196118615961EE601B
:103FF8005A611A61196158615961EF6010275A6155
:104008001A61196118615961EE605A611A61196182
:1040180058615961EF6041F290675A611A611961FC
:1040280018615961EF6011275A611A611961586165
:104038005961EF6040F227275A611A6119611861C6
:104048005961EF6012275A611A6119615861596103
:10405800EF609D275A611A61196118615961EF6013
:1040680013275A611A61196158615961EF604FF459
:10407800C8575A611A61196104E000BF0010014075
:10408800000C014018615961EF6029275A611A61D3
:10409800196158615961EF6025275A611A611961E0
:1040A80018615961EF602B275A611A6119615861CB
:1040B8005961EF600D275A611A61196118615961D8
:1040C800EF6030275A611A61196158615961EF60D0
:1040D80007275A611A61196118615961EF60312720
:1040E8005A611A61196158615961EF6040F20337EA
:1040F8005A611A61196118615961EF6032275A6172
:104108001A61196158615961EF6003275A611A6190
:10411800196118615961EF6035275A611A6119618F
:1041280058615961EF6040F206275A611A611961B6
:1041380018615961EF6036275A611A61196158612F
:104148005961EF6008275A611A611961186159614C
:10415800EF6037275A611A61196158615961EF6038
:1041680040F206475A611A61196118615961EF6096
:1041780038275A611A61196158615961EF604FF423
:1041880041775A611A61196118615961EF603927DD
:104198005A611A61196158615961EF6007275A61BC
:1041A8001A61196118615961EF603C275A611A61F7
:1041B800196158615961EF6040F202675A611A61EA
:1041C800196118615961EF603D275A611A611961D7
:1041D80058615961EF6008275A614FF0500B1A6116
:1041E8004FF0510A19614FF0EF0918614FF052086A
:1041F80059614FF0530EEF6040F23F1C60275A613F
:104208001A61196158615961C5F80CB05A611A618F
:10421800196118615961EE605A611A611961586132
:104228005961C5F80CA05A611A6119611861596180
:10423800C5F80C905A611A61196158615961C5F83D
:104248000C805A611A61196118615961EE605A61EE
:104258001A61196158615961C5F80CE05A611A610F
:10426800196118615961C5F80CC05A611A61196160
:1042780058615961EF604FF427475A611A61196113
:1042880018615961EF6061275A611A6119615861B3
:104298005961EF6001275A611A6119611861596102
:1042A800EF606A275A611A61196158615961EF60B4
:1042B80081275A611A61196118615961EE605A6162
:1042C8001A61196158615961EA605A611A61196184
:1042D80018615961EE605A611A6119615861596132
:1042E800EF6082275A611A61196118615961EE609D
:1042F8005A611A61196158615961EF6083275A61DF
:104308001A61196118615961EE605A611A6119617F
:1043180058615961EF6084275A611A6119611861FF
:104328005961EE605A611A61196158615961EF600B
:1043380085275A611A61196118615961EE605A61DD
:104348001A61196158615961EF6090275A611A61C1
:10435800196118615961EE605A611A6119615861F1
:104368005961EF6010275A611A6119611861596122
:10437800EF6092275A611A61196158615961EF60BB
:104388004FF4C0675A611A61196118615961EF6089
:1043980007275A611A61196158615961EF6040F243
:1043A80033175A611A61196118615961EF605A61CE
:1043B8001A61196158615961EE605A611A6119618F
:1043C800186122205961E8605A611A611961002256
:1043D800044BA27123602122034BA281A360FFF743
:1043E80022BB00BFF000400122002000ED20FDF7B5
:1043F80071F90120FDF7D0F9FE20FDF7CDF9EE2087
:10440800FDF768F9DE20FDF7C7F92120FDF7C4F9AB
:10441800F120FDF75FF90120FDF7BEF9DF20FDF778
:1044280059F91020FDF7B8F9C420FDF753F98F208A
:10443800FDF7B2F9C620FDF74DF90020FDF7ACF9FC
:10444800E220FDF7A9F9E220FDF7A6F9E220FDF741
:10445800A3F9BF20FDF73EF9AA20FDF79DF9B0208A
:10446800FDF738F90D20FDF797F90020FDF794F9CD
:104478000D20FDF791F90020FDF78EF91120FDF7C9
:104488008BF90020FDF788F91920FDF785F9002040
:10449800FDF782F92120FDF77FF90020FDF77CF96F
:1044A8002D20FDF779F90020FDF776F93D20FDF77D
:1044B80073F90020FDF770F95D20FDF76DF9002014
:1044C800FDF76AF95D20FDF767F90020FDF764F94B
:1044D800B120FDF7FFF88020FDF75EF90020FDF719
:1044E8005BF98B20FDF758F90020FDF755F9962068
:1044F800FDF752F90020FDF74FF9B220FDF7EAF871
:104508000020FDF749F90020FDF746F90220FDF7E4
:1045180043F90020FDF740F90320FDF73DF900209D
:10452800FDF73AF9B320FDF7D5F80020FDF734F987
:104538000020FDF731F90020FDF72EF90020FDF7E6
:104548002BF90020FDF728F90020FDF725F90020B8
:10455800FDF722F90020FDF71FF90020FDF71CF9EF
:104568000020FDF719F90020FDF716F90020FDF7E6
:1045780013F90020FDF710F90020FDF70DF90020D0
:10458800FDF70AF90020FDF707F90020FDF704F907
:104598000020FDF701F90020FDF7FEF80020FDF7E7
:1045A800FBF80020FDF7F8F80020FDF7F5F80020EB
:1045B800FDF7F2F80020FDF7EFF8B420FDF78AF8D0
:1045C8008B20FDF7E9F80020FDF7E6F89620FDF7C7
:1045D800E3F80020FDF7E0F8A120FDF7DDF8002062
:1045E800FDF7DAF8B520FDF775F80220FDF7D4F8E5
:1045F8000020FDF7D1F80320FDF7CEF80020FDF7E5
:10460800CBF80420FDF7C8F80020FDF7C5F8B62060
:10461800FDF760F80020FDF7BFF80020FDF7BCF8B3
:10462800B720FDF757F80020FDF7B6F80020FDF792
:10463800B3F83F20FDF7B0F80020FDF7ADF85E2095
:10464800FDF7AAF80020FDF7A7F86420FDF7A4F805
:104658000020FDF7A1F88C20FDF79EF80020FDF75B
:104668009BF8AC20FDF798F80020FDF795F8DC20C2
:10467800FDF792F80020FDF78FF87020FDF78CF811
:104688000020FDF789F89020FDF786F80020FDF757
:1046980083F8EB20FDF780F80020FDF77DF8DC209B
:1046A800FDF77AF80020FDF777F8B820FDF712F843
:1046B8000020FDF771F80020FDF76EF80020FDF7E7
:1046C8006BF80020FDF768F80020FDF765F800207A
:1046D800FDF762F80020FDF75FF80020FDF75CF8B1
:1046E800BA20FCF7F7FF2420FDF756F80020FDF765
:1046F80053F80020FDF750F80020FDF74DF8C120D1
:10470800FCF7E8FF2020FDF747F80020FDF744F804
:104718005420FDF741F80020FDF73EF8FF20FDF793
:104728003BF80020FDF738F8C220FCF7D3FF0A2039
:10473800FDF732F80020FDF72FF80420FDF72CF8DC
:104748000020FDF729F8C320FCF7C4FF3C20FDF743
:1047580023F80020FDF720F83A20FDF71DF8002087
:10476800FDF71AF83920FDF717F80020FDF714F8BF
:104778003720FDF711F80020FDF70EF83C20FDF773
:104788000BF80020FDF708F83620FDF705F80020A3
:10479800FDF702F83220FCF7FFFF0020FCF7FCFFD2
:1047A8002F20FCF7F9FF0020FCF7F6FF2C20FCF780
:1047B800F3FF0020FCF7F0FF2920FCF7EDFF0020B5
:1047C800FCF7EAFF2620FCF7E7FF0020FCF7E4FFF0
:1047D8002420FCF7E1FF0020FCF7DEFF2420FCF793
:1047E800DBFF0020FCF7D8FF2320FCF7D5FF0020D3
:1047F800FCF7D2FF3C20FCF7CFFF0020FCF7CCFFF2
:104808003620FCF7C9FF0020FCF7C6FF3220FCF772
:10481800C3FF0020FCF7C0FF2F20FCF7BDFF0020DE
:10482800FCF7BAFF2C20FCF7B7FF0020FCF7B4FF19
:104838002920FCF7B1FF0020FCF7AEFF2620FCF78B
:10484800ABFF0020FCF7A8FF2420FCF7A5FF002001
:10485800FCF7A2FF2420FCF79FFF0020FCF79CFF39
:104868002320FCF799FF0020FCF796FFC420FCF7F3
:1048780031FF6220FCF790FF0020FCF78DFF052038
:10488800FCF78AFF0020FCF787FF8420FCF784FFF1
:104898000020FCF781FFF020FCF77EFF0020FCF7EA
:1048A8007BFF1820FCF778FF0020FCF775FFA42099
:1048B800FCF772FF0020FCF76FFF1820FCF76CFF75
:1048C8000020FCF769FF5020FCF766FF0020FCF78A
:1048D80063FF0C20FCF760FF0020FCF75DFF17204A
:1048E800FCF75AFF0020FCF757FF9520FCF754FF10
:1048F8000020FCF751FFF320FCF74EFF0020FCF7E7
:104908004BFFE620FCF748FF0020FCF745FFC520D9
:10491800FCF7E0FE3220FCF73FFF0020FCF73CFFED
:104928004420FCF739FF0020FCF736FF6520FCF730
:1049380033FF0020FCF730FF7620FCF72DFF002026
:10494800FCF72AFF8820FCF727FF0020FCF724FF4C
:10495800C620FCF7BFFE2020FCF71EFF0020FCF756
:104968001BFF1720FCF718FF0020FCF715FF01209C
:10497800FCF712FF0020FCF70FFFC720FCF7AAFE88
:104988000020FCF709FF0020FCF706FF0020FCF7D9
:1049980003FF0020FCF700FFC820FCF79BFE002067
:1049A800FCF7FAFE0020FCF7F7FE0020FCF7F4FE07
:1049B8000020FCF7F1FEC920FCF78CFE0020FCF774
:1049C800EBFE0020FCF7E8FE0020FCF7E5FE0020E7
:1049D800FCF7E2FE0020FCF7DFFE0020FCF7DCFE1F
:1049E8000020FCF7D9FE0020FCF7D6FE0020FCF7DB
:1049F800D3FE0020FCF7D0FE0020FCF7CDFE0020FF
:104A0800FCF7CAFE0020FCF7C7FE0020FCF7C4FE36
:104A18000020FCF7C1FE0020FCF7BEFEE020FCF7FA
:104A280059FE1620FCF7B8FE0020FCF7B5FE1C2046
:104A3800FCF7B2FE0020FCF7AFFE2120FCF7ACFE2D
:104A48000020FCF7A9FE3620FCF7A6FE0020FCF7A4
:104A5800A3FE4620FCF7A0FE0020FCF79DFE522096
:104A6800FCF79AFE0020FCF797FE6420FCF794FE02
:104A78000020FCF791FE7A20FCF78EFE0020FCF760
:104A88008BFE8B20FCF788FE0020FCF785FE992022
:104A9800FCF782FE0020FCF77FFEA820FCF77CFED6
:104AA8000020FCF779FEB920FCF776FE0020FCF721
:104AB80073FEC420FCF770FE0020FCF76DFECA20D0
:104AC800FCF76AFE0020FCF767FED220FCF764FEC4
:104AD8000020FCF761FED920FCF75EFE0020FCF701
:104AE8005BFEE020FCF758FE0020FCF755FEF320A3
:104AF800FCF752FE0020FCF74FFEE120FCF7EAFD30
:104B08001620FCF749FE0020FCF746FE1C20FCF7A7
:104B180043FE0020FCF740FE2220FCF73DFE00206B
:104B2800FCF73AFE3620FCF737FE0020FCF734FE8F
:104B38004520FCF731FE0020FCF72EFE5220FCF742
:104B48002BFE0020FCF728FE6420FCF725FE002041
:104B5800FCF722FE7A20FCF71FFE0020FCF71CFE63
:104B68008B20FCF719FE0020FCF716FE9920FCF7B5
:104B780013FE0020FCF710FEA820FCF70DFE002015
:104B8800FCF70AFEB920FCF707FE0020FCF704FE3C
:104B9800C420FCF701FE0020FCF7FEFDCA20FCF74C
:104BA800FBFD0020FCF7F8FDD220FCF7F5FD002006
:104BB800FCF7F2FDD820FCF7EFFD0020FCF7ECFD38
:104BC800E020FCF7E9FD0020FCF7E6FDF320FCF708
:104BD800E3FD0020FCF7E0FDE220FCF77BFD05206B
:104BE800FCF7DAFD0020FCF7D7FD0B20FCF7D4FD1D
:104BF8000020FCF7D1FD1B20FCF7CEFD0020FCF7C0
:104C0800CBFD3420FCF7C8FD0020FCF7C5FD44208F
:104C1800FCF7C2FD0020FCF7BFFD4F20FCF7BCFDF0
:104C28000020FCF7B9FD6120FCF7B6FD0020FCF779
:104C3800B3FD7920FCF7B0FD0020FCF7ADFD88201E
:104C4800FCF7AAFD0020FCF7A7FD9720FCF7A4FDC0
:104C58000020FCF7A1FDA620FCF79EFD0020FCF734
:104C68009BFDB720FCF798FD0020FCF795FDC220BE
:104C7800FCF792FD0020FCF78FFDC720FCF78CFDA8
:104C88000020FCF789FDD120FCF786FD0020FCF709
:104C980083FDD620FCF780FD0020FCF77DFDDD209C
:104CA800FCF77AFD0020FCF777FDF320FCF774FD94
:104CB8000020FCF771FDE320FCF70CFD0520FCF754
:104CC8006BFD0020FCF768FD0A20FCF765FD00205D
:104CD800FCF762FD1C20FCF75FFD0020FCF75CFD83
:104CE8003320FCF759FD0020FCF756FD4420FCF763
:104CF80053FD0020FCF750FD5020FCF74DFD00202F
:104D0800FCF74AFD6220FCF747FD0020FCF744FD54
:104D18007820FCF741FD0020FCF73EFD8820FCF7D9
:104D28003BFD0020FCF738FD9720FCF735FD0020FF
:104D3800FCF732FDA620FCF72FFD0020FCF72CFD28
:104D4800B720FCF729FD0020FCF726FDC220FCF760
:104D580023FD0020FCF720FDC720FCF71DFD0020E7
:104D6800FCF71AFDD120FCF717FD0020FCF714FD15
:104D7800D520FCF711FD0020FCF70EFDDD20FCF727
:104D88000BFD0020FCF708FDF320FCF705FD0020D3
:104D9800FCF702FDE420FCF79DFC0120FCF7FCFC7D
:104DA8000020FCF7F9FC0120FCF7F6FC0020FCF7DA
:104DB800F3FC0220FCF7F0FC0020FCF7EDFC2A20B5
:104DC800FCF7EAFC0020FCF7E7FC3C20FCF7E4FCDD
:104DD8000020FCF7E1FC4B20FCF7DEFC0020FCF790
:104DE800DBFC5D20FCF7D8FC0020FCF7D5FC742028
:104DF800FCF7D2FC0020FCF7CFFC8420FCF7CCFCAD
:104E08000020FCF7C9FC9320FCF7C6FC0020FCF747
:104E1800C3FCA220FCF7C0FC0020FCF7BDFCB320BB
:104E2800FCF7BAFC0020FCF7B7FCBE20FCF7B4FC8A
:104E38000020FCF7B1FCC420FCF7AEFC0020FCF716
:104E4800ABFCCD20FCF7A8FC0020FCF7A5FCD32088
:104E5800FCF7A2FC0020FCF79FFCDD20FCF79CFC83
:104E68000020FCF799FCF320FCF796FC0020FCF7E7
:104E780093FCE520FCF72EFC0020FCF78DFC0020BD
:104E8800FCF78AFC0020FCF787FC0020FCF784FC78
:104E98000220FCF781FC0020FCF77EFC2920FCF7AF
:104EA8007BFC0020FCF778FC3C20FCF775FC00201C
:104EB800FCF772FC4B20FCF76FFC0020FCF76CFC45
:104EC8005D20FCF769FC0020FCF766FC7420FCF709
:104ED80063FC0020FCF760FC8420FCF75DFC0020EC
:104EE800FCF75AFC9320FCF757FC0020FCF754FC15
:104EF800A220FCF751FC0020FCF74EFCB320FCF785
:104F08004BFC0020FCF748FCBE20FCF745FC0020C9
:104F1800FCF742FCC420FCF73FFC0020FCF73CFCFB
:104F2800CD20FCF739FC0020FCF736FCD320FCF739
:104F380033FC0020FCF730FCDC20FCF72DFC0020C3
:104F4800FCF72AFCF320FCF727FC0020FCF724FCE4
:104F5800E620FCF7BFFB1120FCF71EFC0020FCF745
:104F68001BFC3420FCF718FC0020FCF715FC56202D
:104F7800FCF712FC0020FCF70FFC7620FCF70CFC79
:104F88000020FCF709FC7720FCF706FC0020FCF762
:104F980003FC6620FCF700FC0020FCF7FDFB8820E2
:104FA800FCF7FAFB0020FCF7F7FB9920FCF7F4FB71
:104FB8000020FCF7F1FBBB20FCF7EEFB0020FCF720
:104FC800EBFB9920FCF7E8FB0020FCF7E5FB6620EB
:104FD800FCF7E2FB0020FCF7DFFB5520FCF7DCFBCD
:104FE8000020FCF7D9FB5520FCF7D6FB0020FCF786
:104FF800D3FB4520FCF7D0FB0020FCF7CDFB43207A
:10500800FCF7CAFB0020FCF7C7FB4420FCF7C4FBF5
:105018000020FCF7C1FBE720FCF75CFB3220FCF723
:10502800BBFB0020FCF7B8FB5520FCF7B5FB0020C4
:10503800FCF7B2FB7620FCF7AFFB0020FCF7ACFBDB
:105048006620FCF7A9FB0020FCF7A6FB6720FCF70D
:10505800A3FB0020FCF7A0FB6720FCF79DFB0020CA
:10506800FCF79AFB8720FCF797FB0020FCF794FBE2
:105078009920FCF791FB0020FCF78EFBBB20FCF786
:105088008BFB0020FCF788FB9920FCF785FB0020B0
:10509800FCF782FB7720FCF77FFB0020FCF77CFB0A
:1050A8004420FCF779FB0020FCF776FB5620FCF740
:1050B80073FB0020FCF770FB2320FCF76DFB00203E
:1050C800FCF76AFB3320FCF767FB0020FCF764FB66
:1050D8004520FCF761FB0020FCF75EFBE820FCF7AD
:1050E800F9FA0020FCF758FB0020FCF755FB992043
:1050F800FCF752FB0020FCF74FFB8720FCF74CFB2A
:105108000020FCF749FB8820FCF746FB0020FCF751
:1051180043FB7720FCF740FB0020FCF73DFB6620B3
:10512800FCF73AFB0020FCF737FB8820FCF734FB40
:105138000020FCF731FBAA20FCF72EFB0020FCF72F
:105148002BFBBB20FCF728FB0020FCF725FB992054
:10515800FCF722FB0020FCF71FFB6620FCF71CFB7A
:105168000020FCF719FB5520FCF716FB0020FCF784
:1051780013FB5520FCF710FB0020FCF70DFB442027
:10518800FCF70AFB0020FCF707FB4420FCF704FBB4
:105198000020FCF701FB5520FCF7FEFA0020FCF785
:1051A800FBFAE920FCF796FAAA20FCF7F5FA0020AA
:1051B800FCF7F2FA0020FCF7EFFA0020FCF7ECFA13
:1051C8000020FCF787FAAA20FCF7E6FACF20FCF7C4
:1051D80081FA0020FCF7E0FA0020FCF7DDFA002055
:1051E800FCF7DAFA0020FCF7D7FA0020FCF7D4FA2B
:1051F8000020FCF7D1FA0020FCF7CEFA0020FCF7DB
:10520800CBFA0020FCF7C8FA0020FCF7C5FA00200A
:10521800FCF7C2FA0020FCF7BFFA0020FCF7BCFA42
:105228000020FCF7B9FA0020FCF7B6FA0020FCF7DA
:10523800B3FA0020FCF7B0FAF020FCF74BFA002094
:10524800FCF7AAFA5020FCF7A7FA0020FCF7A4FA0A
:105258000020FCF7A1FA0020FCF79EFAF320FCF7E7
:1052680039FA0020FCF798FAF920FCF733FA0620FF
:10527800FCF792FA1020FCF78FFA2920FCF78CFA39
:105288000020FCF789FA3A20FCF724FA5520FCF7AD
:1052980083FA1120FCF71EFA642004F007FB29208A
:1052A800FCF718FA3520FCF715FA0020FCF774FA19
:1052B8005120FCF70FFAFF20FCF76EFA5320FCF799
:1052C80009FA2C20FCF768FA5520FCF703FA82202B
:1052D800FCF762FA2C20FCF7FDF9A288FEF787BBE1
:1052E8000023074A19461846C4F80A20A371FCF798
:1052F80067FA044BA671C4F80A30FEF7ABBB00BFCF
:105308002A002B002B002A004FF400774FF48073FB
:10531800EC229E4DDFF8788280266B616F61C8F8B9
:105328000C2041F28F026E612E612F612B616F613B
:10533800C8F80C20EF226E6141F2342E2E612F61E5
:105348006B616F61C8F80C2001226E614FF0020C8E
:105358002E6103212F614FF4E0602B616F61C8F863
:105368000CE06E612E612F616B616F61C8F80C20D3
:1053780041F230026E612E612F612B616F61C8F8B6
:105388000C306E612E612F616B616F61C8F80CC0C3
:105398006E612E612F612B616F61C8F80C006E6120
:1053A8002E612F616B616F61C8F80C106E612E6100
:1053B8002F612B616F61C8F80C2004224FF000099F
:1053C8006E612E612F616B616F61C8F80C20082235
:1053D8006E612E612F612B616F61C8F80C906E6150
:1053E8002E612F616B616F61C8F80C2040F20222B8
:1053F8006E612E612F612B616F61C8F80C20092244
:105408006E612E612F616B616F61C8F80C200A22F2
:105418006E612E612F612B616F61C8F80C906E610F
:105428002E612F616B616F61C8F80C200C226E61D0
:105438002E612F612B616F61C8F80C906E612E612F
:105448002F616B616F61C8F80C2001226E614FF00B
:105458000D0A2E612F612B616F61C8F80C200F2295
:105468006E612E612F616B616F61C8F80CA06E616F
:105478002E612F612B616F61C8F80C906E612E61EF
:105488002F616B616F61C8F80C2010226E612E616C
:105498002F612B616F61C8F80C906E612E612F61CE
:1054A8006B616F61C8F80C2011226E612E612F614B
:1054B8002B616F61C8F80C906E612E612F616B6172
:1054C8006F61C8F80C2007226E612E612F612B6175
:1054D8006F61C8F80C2012226E614FF0130B2E6119
:1054E8002F616B616F61C8F80C2007226E612E6115
:1054F8002F612B616F61C8F80C906E612E612F616E
:105508006B616F61C8F80CB06E612E612F612B6101
:105518006F61C8F80C906E612E612F616B616F61CD
:10552800C8F80C206E612E612F612B610093012356
:105538006F613220C8F80C306E612E612F6104F063
:10554800B5F941F290411020009B40F227226B618F
:105558006F61C8F80C006E612E612F612B616F615D
:10556800C8F80C1011216E6132202E612F616B6119
:105578006F61C8F80C106E612E612F612B6100936A
:105588006F61C8F80C206E6104E000BF0010014094
:10559800000C01402E612F6104F088F98A22122143
:1055A800009B32206B616F61C8F80C106E612E6130
:1055B8002F612B6100936F61C8F80C206E612E611A
:1055C8002F6104F073F94FF0290C06212B224FF4B8
:1055D800D050009B6B616F61C8F80CB06E612E6192
:1055E8002F612B616F61C8F80C006E6132202E614B
:1055F8002F616B616F61C8F80CC06E612E612F61FD
:105608002B616F61C8F80C106E612E612F616B61A0
:105618006F61C8F80C206E612E612F612B610093B9
:105628006F61C8F80CA06E612E612F6104F03EF91D
:1056380020212122009B32206B616F61C8F80C1079
:105648006E612E612F612B616F61C8F80C906E61DD
:105658002E612F616B616F61C8F80C206E612E613D
:105668002F612B6100936F61C8F80C906E612E61F9
:105678002F6104F01BF94FF0300B40F2046E32201A
:1056880040F2053C35214FF0310A3622009B6B6110
:105698006F61C8F80CB06E612E612F612B616F616C
:1056A800C8F80C906E612E612F616B616F61C8F84C
:1056B8000CA06E612E612F612B616F61C8F80CE040
:1056C8006E612E612F616B616F61C8F80C006E61AD
:1056D8002E612F612B616F61C8F80CC06E612E615D
:1056E8002F616B616F61C8F80C106E612E612F61BC
:1056F8002B616F61C8F80C906E612E612F616B6130
:105708006F61C8F80C2040F609426E612E612F6166
:105718002B616F61C8F80C2037226E612E612F61F2
:105728006B616F61C8F80C204FF401726E612E61D5
:105738002F612B616F61C8F80C2038226E612E61D1
:105748002F616B616F61C8F80C2040F201326E6105
:105758002E612F612B616F61C8F80C2039226E61B0
:105768002E612F616B616F61C8F80C2040F20772DF
:105778006E612E612F612B616F61C8F80C203C228D
:105788006E612E612F616B616F61C8F80C203D223C
:105798006E612E612F612B616F61C8F80C906E618C
:1057A8002E612F616B616F61C8F80C206E612E61EC
:1057B8002F612B61009340F60A236F61C8F80C3003
:1057C8006E612E612F6104F071F84FF0500BEF22DB
:1057D8004FF0510A009B60216B614FF0520E6F61D0
:1057E8004FF0530CC8F80CB040F23F106E612E61B8
:1057F8002F612B616F61C8F80C906E612E612F616B
:105808006B616F61C8F80CA06E612E612F612B610E
:105818006F61C8F80C204FF427426E612E612F612A
:105828006B616F61C8F80CE06E612E612F612B61AE
:105838006F61C8F80C906E612E612F616B616F61AA
:10584800C8F80CC06E612E612F612B616F61C8F8BA
:105858000C006E612E612F616B616F61C8F80C10CE
:105868006E612E612F612B616F61C8F80C20612277
:105878006E612E612F616B616F61C8F80C20012287
:105888006E612E612F612B616F61C8F80C206A224E
:105898006E612E612F616B616F61C8F80C208122E7
:1058A8006E612E612F612B616F61C8F80C906E617B
:1058B8002E612F616B616F61C8F80C606E612E619B
:1058C8002F612B616F61C8F80C906E612E612F619A
:1058D8006B616F61C8F80C2082226E612E612F61A6
:1058E8002B616F61C8F80C906E612E612F616B613E
:1058F8006F61C8F80C2083226E612E612F612B61C5
:105908006F61C8F80C906E612E612F616B616F61D9
:10591800C8F80C2084226E612E612F612B616F61A3
:10592800C8F80C906E612E612F616B616F61C8F8C9
:105938000C2085226E612E612F612B616F61C8F882
:105948000C906E612E612F616B616F61C8F80C203D
:1059580090226E6192212E612F612B616F61C8F8D0
:105968000C906E612E612F616B616F61C8F80C201D
:1059780010226E612E612F612B616F61C8F80C20B7
:105988006E61A2882E612F616B616F61C8F80C107F
:105998004FF4C0616E612E612F612B616F61C8F891
:1059A8000C1007216E612E612F616B616F61C8F861
:1059B8000C106E612E612F612B6140F233136F6101
:1059C800C8F80C306E612E612F61FEF710B84FF4E5
:1059D800007680274FF480734FF0E70E41F2140CE5
:1059E80001219E4DDFF878826B6102206E61C8F854
:1059F8000CE06F612F612E612B616E61C8F80CC0DD
:105A08006F612F612E616B616E61C8F80C10032104
:105A18006F612F612E612B616E61C8F80C306F6168
:105A28002F612E616B616E61C8F80C006F612F6188
:105A38002E612B616E61C8F80C606F612F612E6159
:105A48006B616E61C8F80C1041F238016F612F610B
:105A58002E612B616E61C8F80C1008216F612F61EF
:105A68002E616B616E61C8F80C1040F202216F6103
:105A78002F612E612B616E61C8F80C10092100227C
:105A88006F612F612E616B616E61C8F80C100A217D
:105A98006F612F612E612B616E61C8F80C206F61F8
:105AA8002F612E616B616E61C8F80C100C216F615B
:105AB8002F612E612B616E61C8F80C206F612F6118
:105AC8002E616B616E61C8F80C100D216F612F613A
